{
  "contractName": "AccountMock",
  "abi": [
    {
      "inputs": [
        {
          "internalType": "address",
          "name": "_owner",
          "type": "address"
        }
      ],
      "stateMutability": "nonpayable",
      "type": "constructor"
    },
    {
      "inputs": [],
      "name": "owner",
      "outputs": [
        {
          "internalType": "address",
          "name": "",
          "type": "address"
        }
      ],
      "stateMutability": "view",
      "type": "function"
    },
    {
      "inputs": [
        {
          "internalType": "bytes32",
          "name": "_messageHash",
          "type": "bytes32"
        },
        {
          "internalType": "bytes",
          "name": "_signature",
          "type": "bytes"
        }
      ],
      "name": "isValidSignature",
      "outputs": [
        {
          "internalType": "bytes4",
          "name": "magicValue",
          "type": "bytes4"
        }
      ],
      "stateMutability": "view",
      "type": "function"
    }
  ],
  "bytecode": "0x608060405234801561001057600080fd5b506040516105bf3803806105bf8339818101604052602081101561003357600080fd5b8101908080519060200190929190505050806000806101000a81548173ffffffffffffffffffffffffffffffffffffffff021916908373ffffffffffffffffffffffffffffffffffffffff1602179055505061052b806100946000396000f3fe608060405234801561001057600080fd5b50600436106100365760003560e01c80631626ba7e1461003b5780638da5cb5b14610133575b600080fd5b6100fe6004803603604081101561005157600080fd5b81019080803590602001909291908035906020019064010000000081111561007857600080fd5b82018360208201111561008a57600080fd5b803590602001918460018302840111640100000000831117156100ac57600080fd5b91908080601f016020809104026020016040519081016040528093929190818152602001838380828437600081840152601f19601f820116905080830192505050505050509192919290505050610167565b60405180827bffffffffffffffffffffffffffffffffffffffffffffffffffffffff1916815260200191505060405180910390f35b61013b6101f5565b604051808273ffffffffffffffffffffffffffffffffffffffff16815260200191505060405180910390f35b60008061017d838561021990919063ffffffff16565b905060008054906101000a900473ffffffffffffffffffffffffffffffffffffffff1673ffffffffffffffffffffffffffffffffffffffff168173ffffffffffffffffffffffffffffffffffffffff1614156101e357631626ba7e60e01b9150506101ef565b63ffffffff60e01b9150505b92915050565b60008054906101000a900473ffffffffffffffffffffffffffffffffffffffff1681565b60006041825114610292576040517f08c379a000000000000000000000000000000000000000000000000000000000815260040180806020018281038252601f8152602001807f45434453413a20696e76616c6964207369676e6174757265206c656e6774680081525060200191505060405180910390fd5b60008060006020850151925060408501519150606085015160001a90507f7fffffffffffffffffffffffffffffff5d576e7357a4501ddfe92f46681b20a08260001c111561032b576040517f08c379a00000000000000000000000000000000000000000000000000000000081526004018080602001828103825260228152602001806104b26022913960400191505060405180910390fd5b601b8160ff16141580156103435750601c8160ff1614155b15610399576040517f08c379a00000000000000000000000000000000000000000000000000000000081526004018080602001828103825260228152602001806104d46022913960400191505060405180910390fd5b600060018783868660405160008152602001604052604051808581526020018460ff1681526020018381526020018281526020019450505050506020604051602081039080840390855afa1580156103f5573d6000803e3d6000fd5b505050602060405103519050600073ffffffffffffffffffffffffffffffffffffffff168173ffffffffffffffffffffffffffffffffffffffff1614156104a4576040517f08c379a00000000000000000000000000000000000000000000000000000000081526004018080602001828103825260188152602001807f45434453413a20696e76616c6964207369676e6174757265000000000000000081525060200191505060405180910390fd5b809450505050509291505056fe45434453413a20696e76616c6964207369676e6174757265202773272076616c756545434453413a20696e76616c6964207369676e6174757265202776272076616c7565a26469706673582212206ba4eab66426ab8d2a0896c74c8b8076174d66ca3406ce645a7b74881c4bb8cf64736f6c634300060c0033",
  "immutableReferences": {},
  "source": "pragma solidity ^0.6.0;\n\nimport \"./IERC1271.sol\";\nimport \"openzeppelin-solidity/contracts/cryptography/ECDSA.sol\";\n\ncontract AccountMock is IERC1271 {\n  using ECDSA for bytes32;\n\n  address public owner;\n\n  // bytes4(keccak256(\"isValidSignature(bytes,bytes)\")\n  bytes4 constant internal MAGICVALUE = 0x1626ba7e;\n  bytes4 constant internal INVALID_SIGNATURE = 0xffffffff;\n\n  constructor(address _owner) public {\n    owner = _owner;\n  }\n\n  function isValidSignature(\n    bytes32 _messageHash,\n    bytes memory _signature\n  )\n    public\n    override\n    view\n    returns (bytes4 magicValue)\n  {\n    address signer = _messageHash.recover(_signature);\n    if (signer == owner) {\n      return MAGICVALUE;\n    } else {\n      return INVALID_SIGNATURE;\n    }\n  }\n}\n",
  "sourcePath": "/Users/chris/Authereum/is-valid-signature/contracts/AccountMock.sol",
  "compiler": {
    "name": "solc",
    "version": "0.6.12+commit.27d51765.Emscripten.clang"
  },
  "schemaVersion": "3.2.2",
  "updatedAt": "2020-07-23T01:35:52.505Z",
  "devdoc": {
    "kind": "dev",
    "methods": {},
    "version": 1
  },
  "userdoc": {
    "kind": "user",
    "methods": {},
    "version": 1
  }
}