{
  "contractName": "AccountMock",
  "abi": [
    {
      "constant": true,
      "inputs": [],
      "name": "owner",
      "outputs": [
        {
          "name": "",
          "type": "address"
        }
      ],
      "payable": false,
      "stateMutability": "view",
      "type": "function"
    },
    {
      "inputs": [
        {
          "name": "_owner",
          "type": "address"
        }
      ],
      "payable": false,
      "stateMutability": "nonpayable",
      "type": "constructor"
    },
    {
      "constant": true,
      "inputs": [
        {
          "name": "_data",
          "type": "bytes"
        },
        {
          "name": "_signature",
          "type": "bytes"
        }
      ],
      "name": "isValidSignature",
      "outputs": [
        {
          "name": "magicValue",
          "type": "bytes4"
        }
      ],
      "payable": false,
      "stateMutability": "view",
      "type": "function"
    }
  ],
  "bytecode": "0x608060405234801561001057600080fd5b5060405160208061053e8339810180604052602081101561003057600080fd5b8101908080519060200190929190505050806000806101000a81548173ffffffffffffffffffffffffffffffffffffffff021916908373ffffffffffffffffffffffffffffffffffffffff160217905550506104ad806100916000396000f3fe608060405234801561001057600080fd5b50600436106100365760003560e01c806320c13b0b1461003b5780638da5cb5b146101df575b600080fd5b61018b6004803603604081101561005157600080fd5b810190808035906020019064010000000081111561006e57600080fd5b82018360208201111561008057600080fd5b803590602001918460018302840111640100000000831117156100a257600080fd5b91908080601f016020809104026020016040519081016040528093929190818152602001838380828437600081840152601f19601f8201169050808301925050505050505091929192908035906020019064010000000081111561010557600080fd5b82018360208201111561011757600080fd5b8035906020019184600183028401116401000000008311171561013957600080fd5b91908080601f016020809104026020016040519081016040528093929190818152602001838380828437600081840152601f19601f820116905080830192505050505050509192919290505050610229565b60405180827bffffffffffffffffffffffffffffffffffffffffffffffffffffffff19167bffffffffffffffffffffffffffffffffffffffffffffffffffffffff1916815260200191505060405180910390f35b6101e7610358565b604051808273ffffffffffffffffffffffffffffffffffffffff1673ffffffffffffffffffffffffffffffffffffffff16815260200191505060405180910390f35b6000808360405160200180807f19457468657265756d205369676e6564204d6573736167653a0a333200000000815250601c0182805190602001908083835b6020831061028b5780518252602082019150602081019050602083039250610268565b6001836020036101000a03801982511681845116808217855250505050505090500191505060405160208183030381529060405280519060200120905060006102dd848361037d90919063ffffffff16565b90506000809054906101000a900473ffffffffffffffffffffffffffffffffffffffff1673ffffffffffffffffffffffffffffffffffffffff168173ffffffffffffffffffffffffffffffffffffffff161415610345576320c13b0b60e01b92505050610352565b63ffffffff60e01b925050505b92915050565b6000809054906101000a900473ffffffffffffffffffffffffffffffffffffffff1681565b60006041825114610391576000905061047b565b60008060006020850151925060408501519150606085015160001a90507f7fffffffffffffffffffffffffffffff5d576e7357a4501ddfe92f46681b20a08260001c11156103e5576000935050505061047b565b601b8160ff16141580156103fd5750601c8160ff1614155b1561040e576000935050505061047b565b60018682858560405160008152602001604052604051808581526020018460ff1660ff1681526020018381526020018281526020019450505050506020604051602081039080840390855afa15801561046b573d6000803e3d6000fd5b5050506020604051035193505050505b9291505056fea165627a7a723058207458933d2e0a42995845e4e9cef5b0b080071073887b3a164c6991ec703ca61b0029",
  "source": "pragma solidity 0.5.8;\n\nimport \"./IERC1271.sol\";\nimport \"openzeppelin-solidity/contracts/cryptography/ECDSA.sol\";\n\ncontract AccountMock is IERC1271 {\n  using ECDSA for bytes32;\n\n  address public owner;\n\n  // bytes4(keccak256(\"isValidSignature(bytes,bytes)\")\n  bytes4 constant internal MAGICVALUE = 0x20c13b0b;\n  bytes4 constant internal INVALID_SIGNATURE = 0xffffffff;\n\n  constructor(address _owner) public {\n    owner = _owner;\n  }\n\n  function isValidSignature(\n    bytes memory _data,\n    bytes memory _signature\n  )\n    public\n    view\n    returns (bytes4 magicValue)\n  {\n    bytes32 messageHash = keccak256(abi.encodePacked(\"\\x19Ethereum Signed Message:\\n32\", _data));\n    address signer = messageHash.recover(_signature);\n    if (signer == owner) {\n      return MAGICVALUE;\n    } else {\n      return INVALID_SIGNATURE;\n    }\n  }\n}",
  "sourcePath": "/Users/cwhinfrey/projects/ethereum/0trust/authereum/is-valid-signature/contracts/AccountMock.sol",
  "compiler": {
    "name": "solc",
    "version": "0.5.8+commit.23d335f2.Emscripten.clang"
  },
  "schemaVersion": "3.0.11",
  "updatedAt": "2019-07-29T19:01:16.967Z",
  "devdoc": {
    "methods": {}
  },
  "userdoc": {
    "methods": {}
  }
}