{
  "contractName": "AccountMock",
  "abi": [
    {
      "constant": true,
      "inputs": [],
      "name": "owner",
      "outputs": [
        {
          "name": "",
          "type": "address"
        }
      ],
      "payable": false,
      "stateMutability": "view",
      "type": "function"
    },
    {
      "inputs": [
        {
          "name": "_owner",
          "type": "address"
        }
      ],
      "payable": false,
      "stateMutability": "nonpayable",
      "type": "constructor"
    },
    {
      "constant": true,
      "inputs": [
        {
          "name": "_data",
          "type": "bytes"
        },
        {
          "name": "_signature",
          "type": "bytes"
        }
      ],
      "name": "isValidSignature",
      "outputs": [
        {
          "name": "magicValue",
          "type": "bytes4"
        }
      ],
      "payable": false,
      "stateMutability": "view",
      "type": "function"
    }
  ],
  "bytecode": "0x608060405234801561001057600080fd5b506040516020806106cd8339810180604052602081101561003057600080fd5b8101908080519060200190929190505050806000806101000a81548173ffffffffffffffffffffffffffffffffffffffff021916908373ffffffffffffffffffffffffffffffffffffffff1602179055505061063c806100916000396000f3fe608060405234801561001057600080fd5b50600436106100365760003560e01c806320c13b0b1461003b5780638da5cb5b146101df575b600080fd5b61018b6004803603604081101561005157600080fd5b810190808035906020019064010000000081111561006e57600080fd5b82018360208201111561008057600080fd5b803590602001918460018302840111640100000000831117156100a257600080fd5b91908080601f016020809104026020016040519081016040528093929190818152602001838380828437600081840152601f19601f8201169050808301925050505050505091929192908035906020019064010000000081111561010557600080fd5b82018360208201111561011757600080fd5b8035906020019184600183028401116401000000008311171561013957600080fd5b91908080601f016020809104026020016040519081016040528093929190818152602001838380828437600081840152601f19601f820116905080830192505050505050509192919290505050610229565b60405180827bffffffffffffffffffffffffffffffffffffffffffffffffffffffff19167bffffffffffffffffffffffffffffffffffffffffffffffffffffffff1916815260200191505060405180910390f35b6101e76103b4565b604051808273ffffffffffffffffffffffffffffffffffffffff1673ffffffffffffffffffffffffffffffffffffffff16815260200191505060405180910390f35b60008061023684516103d9565b8460405160200180807f19457468657265756d205369676e6564204d6573736167653a0a000000000000815250601a0183805190602001908083835b602083106102955780518252602082019150602081019050602083039250610272565b6001836020036101000a03801982511681845116808217855250505050505090500182805190602001908083835b602083106102e657805182526020820191506020810190506020830392506102c3565b6001836020036101000a038019825116818451168082178552505050505050905001925050506040516020818303038152906040528051906020012090506000610339848361050c90919063ffffffff16565b90506000809054906101000a900473ffffffffffffffffffffffffffffffffffffffff1673ffffffffffffffffffffffffffffffffffffffff168173ffffffffffffffffffffffffffffffffffffffff1614156103a1576320c13b0b60e01b925050506103ae565b63ffffffff60e01b925050505b92915050565b6000809054906101000a900473ffffffffffffffffffffffffffffffffffffffff1681565b60606000821415610421576040518060400160405280600181526020017f30000000000000000000000000000000000000000000000000000000000000008152509050610507565b6000829050600083905060005b60008214610450578080600101915050600a828161044857fe5b04915061042e565b6060816040519080825280601f01601f1916602001820160405280156104855781602001600182028038833980820191505090505b50905060006001830390505b600085146104fe57600a85816104a357fe5b0660300160f81b828280600190039350815181106104bd57fe5b60200101907effffffffffffffffffffffffffffffffffffffffffffffffffffffffffffff1916908160001a905350600a85816104f657fe5b049450610491565b81955050505050505b919050565b60006041825114610520576000905061060a565b60008060006020850151925060408501519150606085015160001a90507f7fffffffffffffffffffffffffffffff5d576e7357a4501ddfe92f46681b20a08260001c1115610574576000935050505061060a565b601b8160ff161415801561058c5750601c8160ff1614155b1561059d576000935050505061060a565b60018682858560405160008152602001604052604051808581526020018460ff1660ff1681526020018381526020018281526020019450505050506020604051602081039080840390855afa1580156105fa573d6000803e3d6000fd5b5050506020604051035193505050505b9291505056fea165627a7a72305820da526bf833db1a5c40bd8753e99b08375146cbb5a1b625c58915bdbae64991f10029",
  "source": "pragma solidity 0.5.8;\n\nimport \"./IERC1271.sol\";\nimport \"openzeppelin-solidity/contracts/cryptography/ECDSA.sol\";\n\ncontract AccountMock is IERC1271 {\n  using ECDSA for bytes32;\n\n  address public owner;\n\n  // bytes4(keccak256(\"isValidSignature(bytes,bytes)\")\n  bytes4 constant internal MAGICVALUE = 0x20c13b0b;\n  bytes4 constant internal INVALID_SIGNATURE = 0xffffffff;\n\n  constructor(address _owner) public {\n    owner = _owner;\n  }\n\n  function isValidSignature(\n    bytes memory _data,\n    bytes memory _signature\n  )\n    public\n    view\n    returns (bytes4 magicValue)\n  {\n    bytes32 messageHash = keccak256(abi.encodePacked(\"\\x19Ethereum Signed Message:\\n\", uint2str(_data.length), _data));\n    address signer = messageHash.recover(_signature);\n    if (signer == owner) {\n      return MAGICVALUE;\n    } else {\n      return INVALID_SIGNATURE;\n    }\n  }\n\n  function uint2str(uint _num) internal pure returns (string memory _uintAsString) {\n    if (_num == 0) {\n        return \"0\";\n    }\n    uint i = _num;\n    uint j = _num;\n    uint len;\n    while (j != 0) {\n        len++;\n        j /= 10;\n    }\n    bytes memory bstr = new bytes(len);\n    uint k = len - 1;\n    while (i != 0) {\n        bstr[k--] = byte(uint8(48 + i % 10));\n        i /= 10;\n    }\n    return string(bstr);\n  }\n}",
  "sourcePath": "/Users/sh/Dev/authereumorg/authereum/is-valid-signature/contracts/AccountMock.sol",
  "compiler": {
    "name": "solc",
    "version": "0.5.8+commit.23d335f2.Emscripten.clang"
  },
  "schemaVersion": "3.0.11",
  "updatedAt": "2020-01-09T21:34:25.944Z",
  "devdoc": {
    "methods": {}
  },
  "userdoc": {
    "methods": {}
  }
}